:100000006F00D05800000000E6010000E801000089
:1000100000000000000000000000000000000000E0
:1000200000000000000000000000000000000000D0
:100030008A0D0000000000008A0D00000000000092
:100040008A0D00008A0D00008A0D00008A0D000054
:10005000040500008A0D00008A0D00008A0D0000D2
:100060008A0D00008A0D00008A0D00008A0D000034
:100070008A0D00008A0D00008A0D00008A0D000024
:100080008A0D00008A0D00008A0D00008A0D000014
:100090008A0D00008A0D00007203000000000000BD
:0C00A000730050107D157DFD8280000073
:1000AC00511126C022C206C4828282441244A2404C
:1000BC0031018280634E050263C305042E86AA8536
:1000CC007D5515C285466378B6006356C00006069A
:1000DC008606E36CB6FE014563E4C500918D558D33
:1000EC0085820582F5FA82808682C93F2E858282BE
:1000FC003305A04063D70500B305B040C1B7B305C5
:10010C00B0408682653F3305A0408282868263C7F9
:10011C000500634905005D372E858282B305B0402A
:10012C00E35B05FE3305A040513F3305B0408282AE
:10013C0000003D432A876373C3029377F700BDEF3A
:10014C00ADE5937606FF3D8ABA960CC34CC30CC73B
:10015C004CC74107E36BD7FE11E28280B306C34064
:10016C008A069702000096966780A6002307B700C0
:10017C00A306B7002306B700A305B7002305B700F5
:10018C00A304B7002304B700A303B7002303B700ED
:10019C00A302B7002302B700A301B7002301B700E5
:1001AC00A300B7002300B700828093F5F50F939658
:1001BC008500D58D93960501D58D61B79396270053
:1001CC009702000096968682E78086FA9680C11781
:1001DC001D8F3E96E374C3F8A5B701A0B707EFBE19
:1001EC0037E700E0938707083CC701A0EFF25FEB0D
:1001FC00511185451305400302C002C202C4EF1021
:10020C00E01A37140140FD577C808A8593078002E1
:10021C00130504803EC4EF0030618A853715014018
:10022C00EF0090608A8513050440EF00F05F310108
:10023C00ADBDEFF2FFE6156513055555EF003076B1
:10024C001545EF0050760565130505FAEF0030767D
:10025C00EF007076EF00107789BDEFF27FE41301A9
:10026C0081FD02C602C802CA02CC02CE02D002D262
:10027C0002C002C22314010021E53735014081453B
:10028C00130505C0EF108026056581451305058013
:10029C00EF10C01189477C8637140140C1473ECA14
:1002AC006C008D47130504803EC8EF00F0570146E3
:1002BC00894513050480EF00905F13018102F5B3AB
:1002CC002A840565854513054580EF10200E894766
:1002DC007C8637150140E1473ECA6C008D471305FB
:1002EC0005803EC8EF0050549307F00237350140AB
:1002FC003EC08A859307703E130505C03EC2EF10C1
:10030C00A01083C781800547631CF7001307C01238
:10031C00A287637487009307C0121394070141806E
:10032C00E087C16737340140938707062C08130513
:10033C0004C03ECC23100102EF10E011130504C0E1
:10034C008545EF10201C130504C08145EF10A01F3C
:10035C00130504C08545EF10601D8545130504C0C9
:10036C00EF10C01899BF711185453705004022C0A8
:10037C00EF10C01E21C9138781811C431384818116
:10038C0085071CC383C7C18093F7F70FA1C3014630
:10039C00894537150140EF00905183C7818005478F
:1003AC00631CF70C08409305401F3D3B19E53717BC
:1003BC0001405C4793C747005CC785453705004043
:1003CC00EF10401B02441101730020309387A18071
:1003DC009A23930620034207418763D9E60208401B
:1003EC008565938585BB09339307500963FEA70088
:1003FC00130745ED63FAE700130785DA63F6E700A8
:10040C001305C5C7E3E5A7F8054659B79A23F9467E
:10041C004207418763D2E60208408565938585BB18
:10042C00E13193075009E3F1A7FE130745ED1305DE
:10043C0085DAE3E9E7FCC9BF9A23BD464207418749
:10044C0063DEE60008408565938585BB71399307AB
:10045C005009E3FBA7FA130545ED6DB79E23094739
:10046C00C207C187E35BF7F208408565938585BBBE
:10047C00A5399307500979B70146914537150140C5
:10048C00EF00F0421DBFEFF2BFC1311185450545AC
:10049C0002C402C62318010002C002C2EF00F072AF
:1004AC00B707002003A5C701B7450F0093850524A6
:1004BC0031317D159307703E68842C003705004060
:1004CC003EC623150100EF003074054685453705FF
:1004DC000040EF108004930760027C800A858547FA
:1004EC003EC223010100EF00704F854537050040E7
:1004FC00EF00D07F510155BE6111414522C226C08B
:10050C00EF00103005C1C1453715014083A481812E
:10051C00EF00503983C781800947631AF7004145C2
:10052C00EF00F02F12448244210173002030138419
:10053C00C1801C2093F7F70F19E5F5F323AE9180DA
:10054C0085471CA0E9BFE1DF83A7C1813D47B38785
:10055C00F440637FF70203C6418193864181138780
:10056C00018111CA08438565938585BB3385A440F9
:10057C00814763E5A500930716008D8B9CA204C3ED
:10058C001397170085679387C758BA978A23F13159
:10059C002300040069B7EFF2BFB01301C1FD85451C
:1005AC00454502C402C602C802CA02CC02CE02D021
:1005BC0002C002C2EF00905F85450545EF00F06078
:1005CC00C1477C842C0093078004371501403EC83A
:1005DC00EF00902591450945EF00503A0544C1477D
:1005EC0048083ECA3ECE22D002CCEF00D01A930768
:1005FC0040110A857C80408122C2EF00303E1301FD
:10060C00410265B4EFF2DFA951118545414502C0A5
:10061C0002C202C4EF00905999477C80C1473EC486
:10062C008A858D47371501403EC2EF00F01F31011E
:10063C00ADBCEFF2FFA61301C1FD61468145680018
:10064C00CD3C85451305402002C002C202C4EF0018
:10065C00F0553165EF00105337240140B7070E00F9
:10066C00130504403ECC6C0085472300F10202C602
:10067C0002C802CA02CEEF00A07B37150140914799
:10068C008A85130505807C8002C4EF00F0191305E0
:10069C0004408545EF00A07E130404401C4437073A
:1006AC0080002285D98F1CC4EF00607E2285EF006C
:1006BC00A07E6DFD37250140130505403724014010
:1006CC00EF00007E930404402685EF00007E6DFD54
:1006DC00130504401C45370780FF7D17F98F1CC597
:1006EC008145EF00C079814513050020EF00104CC7
:1006FC00130141025DBAEFF2BF9AA147AA859D464C
:10070C006303F5008D46372401400546130504406C
:10071C00EF00A07B854513050440EF00807993041E
:10072C00044089452685EF00700665DD13050440FD
:10073C00EF0050056FF07F97EFF29F966111C14764
:10074C000144814421453EC07D37AA94014565375B
:10075C0082472A94FD17FDF741677D179180939787
:10076C00040137C51200F98CC183A685130505B5A4
:10077C003EC2EFF03F94C1671387F7FF1180798C6D
:10078C002AC0131524002A9413154400018DA68544
:10079C001605EFF0BF9282461387A180924763F84B
:1007AC00A602158D0581420541850AA303C78180E8
:1007BC0089466391E6021307801609456366F700C4
:1007CC0093B7171913C5170021016FF01F8E231053
:1007DC000700E9BF1307E01ACDB7EFF27F8C1301C6
:1007EC00C1FD01459D3C0146994537150140EF007F
:1007FC00100C814537050040EF00504F85453705FB
:10080C000010EF00903C85450545EF00303A93070A
:10081C0000203ECA91473ECCB1473ECE48088547A2
:10082C003ED0EF0040770545EF001037130510065A
:10083C00EF00903B65DD3945EF00B0211305C00298
:10084C00EF0010220545EF00901F13050020EF006C
:10085C00007D37043000854513050440EF00D005BA
:10086C008947371501402C007C84130505409307FC
:10087C0080023EC823150100231601002317010036
:10088C00EF00807A0945EF00901FF52E8145130586
:10089C000440EF0070021307301F02C08247637AD6
:1008AC00F708413B854513050020EF003030372415
:1008BC000140130504408545D9238327844037071D
:1008CC00800013040440D98F1CC402C213075009C2
:1008DC0092476354F7068D352384A1803725014058
:1008EC00130505401C45370780FF7D17F98F1CC584
:1008FC0081457123814513050020EF00302B03A7A0
:10090C008181B7070020854523A2E702B7070020A5
:10091C0037F700E023800702832707D13705004013
:10092C00ED9B2328F7D0EF00703C130141026FF0D0
:10093C00CFF7824785073EC095B7924785073EC2E1
:10094C0041BFEFF2EFF54111EFF0BF8ED926B16741
:10095C0002C49387F734224763F9E726EFF01F8927
:10096C0055311536F9310539854513050020EF0051
:10097C00F0233724014085451305044009238327C0
:10098C00844037078000D98F2324F44002C6130714
:10099C005009B247635FF72245339387818088A360
:1009AC0037250140130505401C45370780FF7D178F
:1009BC00F98F1CC58145E121814513050020EF000D
:1009CC00F01E938781819C43B704002023A2F4027C
:1009DC009307800873A00730938781803EC01384EF
:1009EC00818193844402EF00007DB7070020938639
:1009FC0007029C226393071E9C4018401D8F896739
:100A0C009387077163FEE702854513050020EF000D
:100A1C00F019B72701401385074085458D21B7276D
:100A2C00014003A7874037068000518F23A4E7407D
:100A3C001C4037070020930607029CC085479CA2E8
:100A4C00824789469823938701826397E6209843CF
:100A5C0009EF1840014598C3EFF03F801440238AFA
:100A6C00018023A8D1809387018298430840198D77
:100A7C001307F01D636BA71C9305000AEFF0CFE67C
:100A8C001336C503914537150140152583C74181A0
:100A9C00938641811387C180A1C710231376F60F6B
:100AAC0021E21386018108400C420D8DB7551200CE
:100ABC009385F5F763F6A502FD1793F7F70F856598
:100ACC009CA29385C5588607AE978A23EFF0EFF862
:100ADC001C40138601811CC21387C18093864181FF
:100AEC001C2393F7F70F81CF104083A7C1811D8E74
:100AFC009D679387075363F4C700230007009C226C
:100B0C008DE31C2393F7F70F89EF824709479C234A
:100B1C006309F70083D7A180C207C1876343F7003D
:100B2C006D39B7F700E003A707D1118B63090712E2
:100B3C009307800873B007300F100000B70701400F
:100B4C0083A6474003A7074003A64740518F23A223
:100B5C00E740B7F700E003A607D103A707D136C2D9
:100B6C00137606021367870223A8E7D003A707D1E1
:100B7C004D451377F7FD518F23A8E7D003A707D175
:100B8C001367870023A8E7D097F0FF1FE780C046C4
:100B9C00B7F700E003A707D14D451367870023A8DB
:100BAC00E7D097F0FF1FE7802045B7F700E003A7D9
:100BBC0007D1118B79C39246B707014023A2D740C6
:100BCC009307800873A0073039BD224705073AC444
:100BDC0059B3B24785073EC66DBB0547E392E7E6BE
:100BEC00184094403EC2E38DE6E4B9368247B7061E
:100BFC0080FFFD1688A337250140130505401845D5
:100C0C008145758F18C5A52C814513050020EF0073
:100C1C00E0798247982392476390E702938741815A
:100C2C0094230947637AD7001305C01298A3EFF0F9
:100C3C00CFE2184023A8E1801C409CC0B7070020DD
:100C4C009387070223800700E5BBB52393870182B6
:100C5C0023A00700593641BB23A0070005BD03A7FD
:100C6C0007D11367070123A8E7D09307800873B057
:100C7C0007300F1000008146E9BD03A707D13D9B4B
:100C8C0023A8E7D035BFEFF2AFC1371402401C40A8
:100C9C003707FFF8414593E717001CC05C40F98FFC
:100CAC005CC01C403707F7FE7D17F98F1CC01C4039
:100CBC003707FCFF7D17F98F1CC05C4041777D170F
:100CCC00F98F5CC0B7079F001CC465251C4C93E7CB
:100CDC0007021CCCB717014003A7074093860740B7
:100CEC001377F7F023A0E74003A707401367070823
:100CFC0023A0E74089479CCAB72702409843719BC1
:100D0C0098C3984398C35C4093E707025CC06FF0AC
:100D1C00CFB9EFF2EFB8371702405C43370400202D
:100D2C009146B18B1304C4016385D700A14663823D
:100D3C00D704B7376E01938707601CC0B716024003
:100D4C00DC420840918313F7F700B7070020938724
:100D5C00C700BA978C23DC4293F5F50F93F707087D
:100D6C003357B50081E7EFF06FB52A8718C06FF0E5
:100D7C00CFB35C43B777DC02938707C07DBF01A07C
:100D8C0097010020938141A9138101FE1305000AEC
:100D9C0097F5FF1F9385452617F6FF1F130686262A
:100DAC0063FAC5008322050023A0550011059105A7
:100DBC00E3EAC5FE170500001305457D97F5FF1FF7
:100DCC009385452417F6FF1F1306062563FAC50005
:100DDC008322050023A0550011059105E3EAC5FE09
:100DEC0017F5FF1F13054523938581826377B500A3
:100DFC00232005001105E36DB5FEB7220000938298
:100E0C000288739002308D427390428097F2FFFFFC
:100E1C009382821E93E2320073905230EFF0BFE661
:100E2C0097020000938222B2739012347300203028
:100E3C005C413707F1FF1307F7EF7D8FDC419441DD
:100E4C00A207D58FD98F5CC11C4537F7F1FF13076B
:100E5C00D77FD4457D8F9C49D58F94458606D58FF9
:100E6C00D98F1CC55C55370710FF7D177D8FDC298A
:100E7C00FD1793F7F70FD207D98F5CD582801C45ED
:100E8C0089C593E717001CC58280F99BEDBF1C45F3
:100E9C0093E787001CC5828008450D8105898280F7
:100EAC001C4593E747001CC58280084509810589CC
:100EBC0082801C4591C537075000D98F1CC5828094
:100ECC003707B0FF7D17F98FD5BFA54763F8B70477
:100EDC00138765FF931717008322C500BA971D432C
:100EEC003313F3001343F3FF33735300B397F6003C
:100EFC00B3E767005CC5994763E3C7047D16931796
:100F0C0026003E965859FD47B397C70093C7F7FF85
:100F1C00F98FB395C500DD8D4CD982809397150060
:100F2C0003230501AE971D473317F7001347F7FF4F
:100F3C0033776700B397F6005D8F18C96DBFB14763
:100F4C0063E2C7026516931726003E961859FD47B3
:100F5C00B397C70093C7F7FFF98FB395C500DD8D25
:100F6C000CD982804D161317260054553A96FD471E
:100F7C00B397C70093C7F7FFF58FB395C500DD8D09
:100F8C004CD58280684542054181828008416D8D37
:100F9C003335A00082805841032305004C453706A9
:100FAC000140930706403E979346F3FFB1C5832556
:100FBC000640F58D2320B640D043F18ED4C31443A4
:100FCC00B3E6660014C3184190479346F7FF758E3D
:100FDC0090C7D047F18ED4C7144541466399C600DB
:100FEC009447D98E94C7D447558FD8C78280B6976B
:100FFC009443558F98C382801C43F58F1CC3828009
:10100C00B70701401387074083A70740584B698FE8
:10101C0009C77D8D3335A000828001458280B707DA
:10102C00014023AAA7408280944593F7060193F2CE
:10103C00F60081C7DC41B3E2F20083D3050093F7DD
:10104C00F30FA5C303230500611122C226C08147FB
:10105C00130480029304800405473316F70033F71A
:10106C00C3006312E602939527003D473317B70080
:10107C001347F7FF33736700B395B20033E3650092
:10108C00639D860050C985072147E397E7FC12440E
:10109C0023206500824421018280E39696FE10C9CC
:1010AC00DDB7828008456D8D3335A000828019C272
:1010BC000CC982804CC9828037030140032743004E
:1010CC009317350063D00702B707C0FFF517F98FE8
:1010DC0037070007D98FD9CD370700F07D17798DE9
:1010EC00C98F49A8635D0500B707E0FFED17F98FBD
:1010FC0037070007D98FBDCD06050581D5B7B707D2
:10110C003000931605013376F500C1826313F602A5
:10111C00370600F97D16B377C70003274300798E95
:10112C002322C300A1C95581131745003395E6004E
:10113C0045BF9317B50063D407029357050113F607
:10114C00F7008D47B397C70093C7F7FFF98F3707A1
:10115C000007D98F85C1135755011207C1BF55819F
:10116C0012053395A6009347F5FFF98F3707000753
:10117C00D98FBDF5370701405CC38280370701402A
:10118C00144786058D47B397B70093C7F7FFF58FC4
:10119C001CC71C47B315B500DD8D0CC78280B73753
:1011AC00004088C38280B7370040C8C38280B737FD
:1011BC00004088C78280AD67373700409387A7AA65
:1011CC001CC38280B567373700409387C7CC1CC3DC
:1011DC00371702405C53898BF5DF828083A64182EE
:1011EC00854718216390F6021C31639CD7023C2181
:1011FC009A0793E707F8B7E600E093F7F70FBA966C
:10120C002380F6408546935757003397E6005441A8
:10121C0089CE938707048A07B7E600E0B69798C390
:10122C008280EDF33C219A07F9B793870706B7E65E
:10123C0000E08A07B69798C30F10000082803777BA
:10124C0000401C4709C593E727001CC78280F59B0B
:10125C00EDBF377700401C4BC19B5D8D08CB828066
:10126C00711102C0377700405C4793F707FC3EC012
:10127C0082475D8D2AC082475CC711018280EFE2F4
:10128C003FE2B77700409843759B98C39843136728
:10129C00270098C3B7F700E003A707D113674700EF
:1012AC0023A8E7D003A707D1118B45C39307800868
:1012BC0073B007300F100000B707014083A44740FC
:1012CC0003A7074083A64740558F23A2E74037F476
:1012DC0000E0032704D1832704D14D45137707027F
:1012EC0093E787022328F4D0832704D193F7F7FDE3
:1012FC00D98F2328F4D0832704D193E787002328A0
:10130C00F4D097F0FF1FE78020CF832704D14D4501
:10131C0093E787002328F4D097F0FF1FE780C0CD18
:10132C00832704D1918BA1C3B707014023A2974017
:10133C009307800873A0073037F700E0832707D1A5
:10134C00ED9B2328F7D06FE05FD603A707D1136777
:10135C00070123A8E7D09307800873B007300F105C
:10136C0000008144ADB7832704D1BD9B2328F4D062
:10137C00C1B7371702401C430E0593F777F05D8D0C
:10138C0008C38280B7160240DC4241771307F77F0F
:10139C00F98F5D8DC8C28280371702405C5309C536
:1013AC0093E717005CD38280F99BEDBF99C5371783
:1013BC0002401C4F5D8D08CF8280B7170240984FBA
:1013CC001345F5FF798D88CF828099C53717024078
:1013DC005C4F5D8D48CF8280B7170240D84F1345C4
:1013EC00F5FF798DC8CF8280135755008547631957
:1013FC00F700B71702409C4333D5A70005898280BC
:10140C00B7170240DC53CDBF1E21373701401307FD
:10141C0007C0C207C1836306E500370700406316A7
:10142C00E500BA2193F7F7F8D98FFA2193F7F7CFA4
:10143C00C207C183D98F1EA1DE215EB59E211EB5C8
:10144C00B7370140938707C06314F5009C251EB97C
:10145C0085475EA982801E3165771307F7CFC207D7
:10146C00C183BD9BC207C1831EB11E31562103D35C
:10147C008500C20713960601162DC18393F7F7FD5D
:10148C00758F96214182A206558FB6214207418362
:10149C00B3E666009206D58FB7360140C207938635
:1014AC0006C0C183631ED502B62593F7F7F703D3A5
:1014BC00C5009206D58FD621C207C183920693F739
:1014CC00F7FBD58FFD769386F63FF18EF225C2079A
:1014DC00C183336666000A06D18E139606014182DB
:1014EC0052A11AADFA2118DD1EB182801E2189C5C8
:1014FC0093E717001EA18280C207C183F99BC20724
:10150C00C183CDBF8357450491C52167D98F231261
:10151C00F5048280C607C583DDBF5E2501C6DD8D5F
:10152C004EA5828093C5F5FFFD8DDDBF1E2189C5BB
:10153C0093E707081EA18280C207C18393F7F7F7D0
:10154C00C207C183C5BF1A2DFD779387F77FF98F2B
:10155C00A205CD8FC207C1831EAD82801E294A25EC
:10156C00ED8F4205418189C76D8D3335A000828096
:10157C000145828093C5F5FFC205C1810EA9828009
:08158C00000032002C01840371
:1015940001020304050607080102030405060708FF
:0415A40000127A00B7
:00000001FF
