:100000006F00F05800000000FE0100000002000038
:1000100000000000000000000000000000000000E0
:1000200000000000000000000000000000000000D0
:100030008C0D0000000000008C0D0000000000008E
:100040008C0D00008C0D00008C0D00008C0D00004C
:1000500076040000000400008C0D00008C0D0000F0
:100060008C0D00008C0D00008C0D00008C0D00002C
:100070008C0D00008C0D00008C0D00008C0D00001C
:100080008C0D00008C0D00008C0D00008C0D00000C
:100090008C0D00008C0D00001E030000000000000D
:0C00A000730050107D157DFD8280000073
:1000AC00511126C022C206C4828282441244A2404C
:1000BC00310182802A86014593F6150091C2329552
:1000CC0085810606F5F9828000000000634E05026A
:1000DC0063C305042E86AA857D5515C285466378B3
:1000EC00B6006356C00006068606E36CB6FE0145F4
:1000FC0063E4C500918D558D85820582F5FA828069
:10010C008682C93F2E8582823305A04063D70500C5
:10011C00B305B040C1B7B305B0408682653F330527
:10012C00A0408282868263C70500634905005D3763
:10013C002E858282B305B040E35B05FE3305A040FB
:10014C00513F3305B040828200003D432A876373E0
:10015C00C3029377F700BDEFADE5937606FF3D8ABA
:10016C00BA960CC34CC30CC74CC74107E36BD7FE04
:10017C0011E28280B306C3408A069702000096966D
:10018C006780A6002307B700A306B7002306B700B5
:10019C00A305B7002305B700A304B7002304B700D9
:1001AC00A303B7002303B700A302B7002302B700D1
:1001BC00A301B7002301B700A300B7002300B700C9
:1001CC00828093F5F50F93968500D58D9396050156
:1001DC00D58D61B79396270097020000969686827C
:1001EC00E78086FA9680C1171D8F3E96E374C3F89C
:1001FC00A5B701A0B707EFBE37E700E09387070864
:10020C003CC701A0EFF2DFE9156513055555EF006A
:10021C00F06C1545EF00106D0565130505FAEF0040
:10022C00F06CEF00306DEF00D06D41B5EFF25FE791
:10023C00130181FD02C602C802CA02CC02CE02D052
:10024C0002D202C002C2231401000DE13735014075
:10025C008145130505C0EF10C006056581451305E2
:10026C000580EF0010741301810281B52A840565A5
:10027C00854513054580EF00D07289477C8637157C
:10028C000140E1473ECA6C008D47130505803EC80E
:10029C00EF00B0599307F002373501403EC08A8514
:1002AC009307703E130505C03EC2EF00507383C721
:1002BC0081800547631CF7001307C012A287637483
:1002CC0087009307C012139407014180E087C16730
:1002DC0037340140938707062C08130504C03ECC25
:1002EC0023100102EF009074130504C08545EF0044
:1002FC00D07E130504C08145EF104002130504C0E5
:10030C008545EF1000008545130504C0EF00707B98
:10031C0099BF711185453705004022C0EF1060016F
:10032C0051C1138781811C431384818185071CC3B0
:10033C0083C7D18093F7F70F95C7084083A7C18176
:10034C00130505CE1D8D85679387F7F963ECA70020
:10035C009305803E753313360519894537150140D1
:10036C00EF00105513878180182385469387818071
:10037C00639EE60203C7518115CB08409305401FCD
:10038C00413301ED9387418190231336160090A3DE
:10039C00914537150140EF00B051854537050040B8
:1003AC00EF00B07A024411017300203003C7C18002
:1003BC001377F70F15CB08408565938505FA8933BC
:1003CC0083D7A1802947C207C187635CF7009307D5
:1003DC00500963F6A700130545ED63EBA70005462E
:1003EC0045BF9307700CD5BF9C230947E307F7FA69
:1003FC00014679BF73002030EFF29FCA3111854559
:10040C00054502C402C62318010002C002C2EF0057
:10041C00305BB707002003A5C701B7450F009385D4
:10042C0005244D397D159307703E68842C003705E3
:10043C0000403EC623150100EF00705A0546854565
:10044C0037050040EF00D06A930760027C800A8574
:10045C0085473EC223010100EF00304C854537052E
:10046C000040EF001066510189B15111414522C481
:10047C0026C2EF00103905C1C1453715014003A450
:10048C008181EF00504283C781800947631AF700CE
:10049C004145EF00F0382244924431017300203082
:1004AC009384D1809C2093F7F70F19E5F5F323AED5
:1004BC00818085479CA0E9BFE1DF83A7C181130739
:1004CC000032B307F4406371F7068566138676ED48
:1004DC001147636CF6009386F6AE0D4763E7F600A2
:1004EC00130770703337F7000507938751819423F6
:1004FC0091EA8546130520033AC094A3053B0247B5
:10050C0023A88180B7F53600938505E83A855D36DA
:10051C00229523A2A1820546894537150140EF009B
:10052C00303923800400ADB75147E37CF7FE014618
:10053C0089453715014023A20182EF00703703C6AD
:10054C005181938651811387018111CA08438565B6
:10055C00938585BB3305A440814763E5A5009307CC
:10056C0016008D8B9CA200C3139717008567938789
:10057C004736BA978A235D396DB7EFF27FB2130114
:10058C00C1FD8545454502C402C602C802CA02CC5B
:10059C0002CE02D002C002C2EF00B0408545054534
:1005AC00EF001042C1477C842C0093078004371560
:1005BC0001403EC8EF00702791450945EF00F02F30
:1005CC000544C14748083ECA3ECE22D002CCEF00BB
:1005DC00B01C930740110A857C80408122C2EF0039
:1005EC00D03313014102D1B4EFF29FAB51118545C9
:1005FC00414502C002C202C4EF00B03A99477C8068
:10060C00C1473EC48A858D47371501403EC2EF0075
:10061C00D021310159BCEFF2BFA81301C1FD6146D5
:10062C00814568001D3685451305402002C002C275
:10063C0002C4EF0010372965EF00703537240140F4
:10064C00B7070E003ECC6C00854713050440230011
:10065C00F10202C602C802CA02CEEF00807D371535
:10066C00014091478A85130505807C8002C4EF0008
:10067C00D01B854513050440EF0090001305044082
:10068C00EF001001930404402685EF0010016DFD6E
:10069C001305044037240140EF00B00093040440DC
:1006AC002685EF00B0006DFD814513050440EF0079
:1006BC00207D13014102D5BAEFF29F9E37240140F1
:1006CC00AA858D46054613050440EF00300085458C
:1006DC0013050440EF00007E9304044089452685F1
:1006EC00EF00F00A65DD13050440EF00D00975BA80
:1006FC00EFF21F9B611191470144814421453EC09B
:10070C00653FAA9401454D3F82472A94FD17FDF79A
:10071C0041677D1789809397040137C51200F98CC6
:10072C00C183A685130505B53EC24D32C16713873B
:10073C00F7FF0980798C2AC0131524002A9413150D
:10074C004400018DA6851605EFF0DF9882461386CE
:10075C00A1801387C180924763FAA602158D05818B
:10076C00420541850AA2854614A303C781808946A8
:10077C006393E6021307901609456366F70093B777
:10078C00A71913C5170021016FF03F922310060023
:10079C0023000700D9BF1307C01BF9BFEFF25F900E
:1007AC00492937240140853D854513050440EF0058
:1007BC00206D3D3F2384A180814513050440EF004B
:1007CC00206C03A78181B7070020854523A2E7028F
:1007DC00B707002037F700E023800702832707D1F3
:1007EC0037050040ED9B2328F7D0EF00902D6FF0DC
:1007FC00DF8BEFF2FF8A0145153C01469945371511
:10080C000140EF00F00A814537050040EF00702BE6
:10081C00854537050010EF00B01AB77700403D470B
:10082C0098CB5547D8C798471367270098C7984364
:10083C001367270098C3B7F700E003A707D1136726
:10084C00470023A8E7D003A707D1118B51CB9307FF
:10085C00800873B007300F100000B707014083A465
:10086C00474003A7074083A64740558F23A2E74084
:10087C0037F400E0032704D1832704D14D451377C7
:10088C00070293E787022328F4D0832704D193F738
:10089C00F7FDD98F2328F4D0832704D193E7870061
:1008AC002328F4D097F0FF1FE7800075832704D12D
:1008BC004D4593E787002328F4D097F0FF1FE7807E
:1008CC00A073832704D1918B95CBB707014023A24A
:1008DC0097409307800873A00730C9356FF0EFFC81
:1008EC0003A707D11367070123A8E7D09307800854
:1008FC0073B007300F10000081449DBF832704D1D3
:10090C00BD9B2328F4D0F1B7EFF28FF93111EFF042
:10091C007F8F0921D139CD34FD39D54702C65C868C
:10092C00680085473EC8EF00407F370701408327AA
:10093C00074093E707202320F74081319307800875
:10094C0073A00730B727060002C69387F7A7324774
:10095C0063F9E71EA135EF00E079B7070020138695
:10096C0007021C22138781803AC013845181639E35
:10097C00071CB7040020938781819384440298401C
:10098C009443998E0967130707716372D702372551
:10099C000140854513050540E521938781819C43E2
:1009AC0037070020130607029CC085471CA282470C
:1009BC0009479C23938401826318F70083C7C18085
:1009CC0093F7F70F6389071E23A0040093874182D6
:1009DC009C43938441828DCB93878181984394402F
:1009EC00158F634307020145EFF05F84014689458B
:1009FC00371501402300040023A00400552D9387D4
:100A0C008181984323A8E1809C401387D180A1EB7E
:100A1C001C20B1C7142393F6F60FB1E21386818123
:100A2C009386018108428C420D8DB7551200938537
:100A3C00F5F763F6A502FD1793F7F70F85651CA074
:100A4C00938545368607AE978A23EFF02FFE1386E3
:100A5C0081811C42938601819CC21387D1801C2307
:100A6C0093F7F70F89CF83A6818183A7C1819D8ED0
:100A7C009D679387075363F4D700230007001C205E
:100A8C0095E39C4085E31C2393F7F70F81EF824796
:100A9C0009479C236308F70083C7C18093F7F70FBE
:100AAC0091E3813BB7F700E003A707D1118B630EED
:100ABC0007149307800873B007300F100000B707B6
:100ACC00014083A4474003A7074083A64740558FA6
:100ADC0023A2E74037F400E0032704D1832704D195
:100AEC004D451377070293E787022328F4D0832719
:100AFC0004D193F7F7FDD98F2328F4D0832704D1A1
:100B0C0093E787002328F4D097F0FF1FE780C04EAF
:100B1C00832704D14D4593E787002328F4D097F021
:100B2C00FF1FE780604D832704D1918B638D070EE7
:100B3C00B707014023A297409307800873A00730A2
:100B4C0019BD324705073AC619B50547E391E7E6E3
:100B5C0013878181144337070020032647023EC4C4
:100B6C00930747023EC293848181E302D6E449365F
:100B7C008247814588A33725014013050540092686
:100B8C0082479823A247639EE7001820894763FA9F
:100B9C00E7001305C0121CA0EFF04FE9984023A802
:100BAC00E1809C4012471CC3B707002093870702C3
:100BBC0023800700EDBB1C2089E723A00400153916
:100BCC0059BB98409387818109EF9843014598C0A0
:100BDC00EFF0CFE59387818194432300040023A891
:100BEC00D18088439C401D8D9307F01D63EDA700B9
:100BFC009305000AEFF0CFD01336C5039145371596
:100C0C0001407D21E1B3FD214DBF03A707D113673F
:100C1C00070123A8E7D09307800873B007300F10A3
:100C2C000000814445BD832704D1BD9B2328F4D00B
:100C3C0021B7EFF2EFC6371402401C403707FFF81C
:100C4C00414593E717001CC05C40F98F5CC01C4009
:100C5C003707F7FE7D17F98F1CC01C403707FCFFC8
:100C6C007D17F98F1CC05C4041777D17F98F5CC0F4
:100C7C00B7079F001CC419231C4C93E707021CCC1C
:100C8C00B717014003A70740938607401377F7F087
:100C9C0023A0E74003A707401367070823A0E740FA
:100CAC0089479CCAB7F7FF1F03C5477D9307F00F11
:100CBC006304F5007D89D921B72702409843C1769A
:100CCC00FD16719B98C398431367170098C3B71709
:100CDC000240D843D8C3D843758FD8C3D843B7067E
:100CEC000001D8C39843558F98C398439316670057
:100CFC00E3DD06FED843B7160240719BD8C3D84338
:100D0C0013672700D8C32147DC42B18BE39EE7FE73
:100D1C006FF0AFB9EFF2CFB8371702405C4337042E
:100D2C0000209146B18B1304C4016385D700A14602
:100D3C006382D704B7376E01938707601CC0B71660
:100D4C000240DC420840918313F7F700B7070020FC
:100D5C009387C700BA978C23DC4293F5F50F93F772
:100D6C0007083357B50081E7EFF0CFB62A8718C0D4
:100D7C006FF0AFB35C43B777DC02938707C07DBFDE
:100D8C0001A097010020938121A9138101FE130575
:100D9C00000A97F5FF1F9385252617F6FF1F1306EC
:100DAC00662663FAC5008322050023A055001105B1
:100DBC009105E3EAC5FE170500001305A55A97F542
:100DCC00FF1F9385252417F6FF1F1306E62463FAED
:100DDC00C5008322050023A0550011059105E3EA07
:100DEC00C5FE17F5FF1F130525239385C182637775
:100DFC00B500232005001105E36DB5FEB7220000F8
:100E0C0093820288739002308D427390428097F2E5
:100E1C00FFFF9382621E93E2320073905230EFF028
:100E2C005FE197020000938262AE739012347300FC
:100E3C0020305C413707F1FF1307F7EF7D8FDC4162
:100E4C009441A207D58FD98F5CC11C4537F7F1FFB0
:100E5C001307D77FD4457D8F9C49D58F9445860643
:100E6C00D58FD98F1CC55C55370710FF7D177D8F2B
:100E7C00DC29FD1793F7F70FD207D98F5CD5828049
:100E8C001C4589C593E717001CC58280F99BEDBFF3
:100E9C001C4593E787001CC5828008450D81058998
:100EAC0082801C4593E747001CC582800845098158
:100EBC00058982801C4591C537075000D98F1CC508
:100ECC0082803707B0FF7D17F98FD5BFA54763F830
:100EDC00B704138765FF931717008322C500BA97D1
:100EEC001D433313F3001343F3FF33735300B397D2
:100EFC00F600B3E767005CC5994763E3C7047D164A
:100F0C00931726003E965859FD47B397C70093C7D1
:100F1C00F7FFF98FB395C500DD8D4CD9828093977F
:100F2C00150003230501AE971D473317F700134730
:100F3C00F7FF33776700B397F6005D8F18C96DBF65
:100F4C00B14763E2C7026516931726003E961859FF
:100F5C00FD47B397C70093C7F7FFF98FB395C5004B
:100F6C00DD8D0CD982804D161317260054553A96F8
:100F7C00FD47B397C70093C7F7FFF58FB395C5002F
:100F8C00DD8D4CD5828068454205418182800841C7
:100F9C006D8D3335A00082805841032305004C45EC
:100FAC0037060140930706403E979346F3FFB1C5C1
:100FBC0083250640F58D2320B640D043F18ED4C353
:100FCC001443B3E6660014C3184190479346F7FFE9
:100FDC00758E90C7D047F18ED4C71445414663999E
:100FEC00C6009447D98E94C7D447558FD8C78280F2
:100FFC00B6979443558F98C382801C43F58F1CC3BE
:10100C008280B70701401387074083A70740584BDE
:10101C00698F09C77D8D3335A000828001458280A0
:10102C00B707014023AAA7408280944593F7060195
:10103C0093F2F60081C7DC41B3E2F20083D30500E2
:10104C0093F7F30FA5C303230500611122C226C039
:10105C008147130480029304800405473316F7007C
:10106C0033F7C3006312E602939527003D4733170D
:10107C00B7001347F7FF33736700B395B20033E340
:10108C006500639D860050C985072147E397E7FCFF
:10109C00124423206500824421018280E39696FE4F
:1010AC0010C9DDB7828008456D8D3335A000828074
:1010BC0019C20CC982804CC9828037070140144781
:1010CC0086058D47B397B70093C7F7FFF58F1CC7FD
:1010DC001C47B315B500DD8D0CC78280B7370040B7
:1010EC0088C38280B7370040C8C38280B7370040BE
:1010FC0088C78280AD67373700409387A7AA1CC387
:10110C008280B567373700409387C7CC1CC337172D
:10111C0002405C53898BF5DF828083A681828547F0
:10112C0018216390F6021C31639CD7023C219A076C
:10113C0093E707F8B7E600E093F7F70FBA9623802A
:10114C00F6408546935757003397E600544189CEB5
:10115C00938707048A07B7E600E0B69798C38280A6
:10116C00EDF33C219A07F9B793870706B7E600E041
:10117C008A07B69798C30F10000082803717024079
:10118C001C430E0593F777F05D8D08C38280B7166C
:10119C000240DC4241771307F77FF98F5D8DC8C29F
:1011AC00828099C5371702401C4F5D8D08CF828015
:1011BC00B7170240984F1345F5FF798D88CF828081
:1011CC0099C5371702405C4F5D8D48CF8280B717A9
:1011DC000240D84F1345F5FF798DC8CF82801E2170
:1011EC0037370140130707C0C207C1836306E50008
:1011FC00370700406316E500BA2193F7F7F8D98F4B
:10120C00FA2193F7F7CFC207C183D98F1EA1DE2134
:10121C005EB59E211EB5B7370140938707C0631496
:10122C00F5009C251EB985475EA982801E31657725
:10123C001307F7CFC207C183BD9BC207C1831EB181
:10124C001E31562103D38500C20713960601162DB5
:10125C00C18393F7F7FD758F96214182A206558FB6
:10126C00B62142074183B3E666009206D58FB736A6
:10127C000140C207938606C0C183631ED502B62502
:10128C0093F7F7F703D3C5009206D58FD621C20783
:10129C00C183920693F7F7FBD58FFD769386F63FC5
:1012AC00F18EF225C207C183336666000A06D18E21
:1012BC0013960601418252A11AADFA2118DD1EB116
:1012CC0082801E2189C593E717001EA18280C20768
:1012DC00C183F99BC207C183CDBF8357450491C518
:1012EC002167D98F2312F5048280C607C583DDBF21
:1012FC005E2501C6DD8D4EA5828093C5F5FFFD8D63
:10130C00DDBF1E2189C593E707081EA18280C20795
:10131C00C18393F7F7F7C207C183C5BF1A2DFD77B9
:10132C009387F77FF98FA205CD8FC207C1831EADBE
:10133C0082801E294A25ED8F4205418189C76D8D1A
:10134C003335A00082800145828093C5F5FFC2052C
:10135C00C1810EA982800000000032002C018403A0
:10136C000102030405060708010203040506070829
:04137C00006CDC0223
:00000001FF
