:100000006F00104C00000000FE0100000002000024
:1000100000000000000000000000000000000000E0
:1000200000000000000000000000000000000000D0
:10003000BE0C000000000000BE0C0000000000002C
:10004000BE0C0000BE0C0000BE0C0000BE0C000088
:1000500042040000BE0C0000BE0C0000BE0C0000FC
:10006000BE0C0000BE0C0000BE0C0000BE0C000068
:10007000BE0C0000BE0C0000BE0C0000BE0C000058
:10008000BE0C0000BE0C0000BE0C0000BE0C000048
:10009000BE0C0000BE0C00001E03000000000000AB
:0C00A000730050107D157DFD8280000073
:1000AC00511126C022C206C4828282441244A2404C
:1000BC00310182802A86014593F6150091C2329552
:1000CC0085810606F5F9828000000000634E05026A
:1000DC0063C305042E86AA857D5515C285466378B3
:1000EC00B6006356C00006068606E36CB6FE0145F4
:1000FC0063E4C500918D558D85820582F5FA828069
:10010C008682C93F2E8582823305A04063D70500C5
:10011C00B305B040C1B7B305B0408682653F330527
:10012C00A0408282868263C70500634905005D3763
:10013C002E858282B305B040E35B05FE3305A040FB
:10014C00513F3305B040828200003D432A876373E0
:10015C00C3029377F700BDEFADE5937606FF3D8ABA
:10016C00BA960CC34CC30CC74CC74107E36BD7FE04
:10017C0011E28280B306C3408A069702000096966D
:10018C006780A6002307B700A306B7002306B700B5
:10019C00A305B7002305B700A304B7002304B700D9
:1001AC00A303B7002303B700A302B7002302B700D1
:1001BC00A301B7002301B700A300B7002300B700C9
:1001CC00828093F5F50F93968500D58D9396050156
:1001DC00D58D61B79396270097020000969686827C
:1001EC00E78086FA9680C1171D8F3E96E374C3F89C
:1001FC00A5B701A0B707EFBE37E700E09387070864
:10020C003CC701A0EFF2DFE9156513055555EF006A
:10021C0010601545EF0030600565130505FAEF0019
:10022C001060EF005060EF00F06041B5EFF25FE757
:10023C00130181FD02C602C802CA02CC02CE02D052
:10024C0002D202C002C2231401000DE13735014075
:10025C008145130505C0EF00F0790565814513054F
:10026C000580EF0030671301810281B52A84056592
:10027C00854513054580EF00F06589477C86371569
:10028C000140E1473ECA6C008D47130505803EC80E
:10029C00EF00D04C9307F002373501403EC08A8501
:1002AC009307703E130505C03EC2EF00706683C70E
:1002BC0081800547631CF7001307C012A287637483
:1002CC0087009307C012139407014180E087C16730
:1002DC0037340140938707062C08130504C03ECC25
:1002EC0023100102EF00B067130504C08545EF0031
:1002FC00F071130504C08145EF007075130504C03F
:10030C008545EF0030738545130504C0EF00906EF2
:10031C0099BF711185453705004022C0EF009074DC
:10032C003DC5138781811C431384818185071CC3C0
:10033C0083C7C18093F7F70F95C7084083A7C18186
:10034C00130505CE1D8D85679387F7F963ECA70020
:10035C009305803E753313360519894537150140D1
:10036C00EF00304883C7818005476316F7020840C9
:10037C009305401F713319E5371701405C4793C74C
:10038C0047005CC7854537050040EF00306F0244DD
:10039C0011017300203083D7A180C207C187635C31
:1003AC00F00008408565938505FA993B9307100387
:1003BC00054663F3A7000146914537150140EF0050
:1003CC005042C9B7EFF2DFCD31118545054502C466
:1003DC0002C62318010002C002C2EF009051B707F9
:1003EC00002003A5C701B7450F0093850524DD3117
:1003FC007D159307703E68842C00370500403EC67F
:10040C0023150100EF00D050054685453705004007
:10041C00EF003061930760027C800A8585473EC2FD
:10042C0023010100EF009042854537050040EF00A5
:10043C00705C51019DB95111414522C426C2EF0097
:10044C00702F05C1C1453715014003A48181EF0010
:10045C00B03883C781800947631AF7004145EF0024
:10046C00502F224492443101730020309384C18078
:10047C009C2093F7F70F19E5F5F323AE81808547A0
:10048C009CA0E9BFE1DF83A7C18113070032B3074A
:10049C00F4406371F7068566138676ED1147636C3D
:1004AC00F6009386F6AE0D4763E7F60013077070FF
:1004BC003337F700050793874181942391EA8546EA
:1004CC00130520033AC094A39533024723A88180D7
:1004DC00B7F53600938505E83A85E93E229523A2C7
:1004EC00A1820546894537150140EF00902F2380E6
:1004FC000400ADB75147E37CF7FE0146894537153B
:10050C00014023A20182EF00D02D03C641819386C6
:10051C0041811387018109CA0C431305007D814772
:10052C00B305B4406365B500930716008D8B9CA290
:10053C0000C313971700856793874729BA978A23B7
:10054C00F53175B7EFF2DFB51301C1FD85454545B2
:10055C0002C402C602C802CA02CC02CE02D002C039
:10056C0002C2EF00303785450545EF009038C14792
:10057C007C842C0093078004371501403EC8EF00A3
:10058C00F01D91450945EF0070260544C147480808
:10059C003ECA3ECE22D002CCEF003013930740115E
:1005AC000A857C80408122C2EF00502A130141024F
:1005BC00EDBCEFF2FFAE51118545414502C002C2C0
:1005CC0002C4EF00303199477C80C1473EC48A8514
:1005DC008D47371501403EC2EF0050183101F1B480
:1005EC00EFF21FAC1301C1FD614681456800B13EBD
:1005FC0085451305402002C002C202C4EF00902DB5
:10060C003165EF00F02B37240140B7070E003ECCCC
:10061C006C008547130504402300F10202C602C892
:10062C0002CA02CEEF0000743715014091478A854B
:10063C00130505807C8002C4EF005012854513051C
:10064C000440EF00007713050440EF00807793041B
:10065C0004402685EF0080776DFD13050440372498
:10066C000140EF002077930404402685EF002077AB
:10067C006DFD814513050440EF00A0731301410289
:10068C002DB4EFF2FFA137240140AA858D46054613
:10069C0013050440EF00A076854513050440EF00D8
:1006AC0080749304044089452685EF00700165DD54
:1006BC0013050440EF005000CDBAEFF27F9E61119C
:1006CC00A1470144814421453EC0653FAA940145A0
:1006DC004D3F82472A94FD17FDF7C166FD168D80AC
:1006EC009397040137C51200F58CC183A6851305B9
:1006FC0005B53EC2E13AC1679386F7FF0D80758C54
:10070C002AC0131524002A9413154400018DA685C4
:10071C001605C93202471384A1809247637BA70256
:10072C00A945198D3EC07D324205824741850AA0FC
:10073C0003C7818089466391E60213079016094529
:10074C006366F70093B7771813C5170021016FF094
:10075C00DF9523100400E9BF13079019CDB7EFF212
:10076C003F940145E1340146994537150140EF00AE
:10077C005007814537050040EF00D02785453705E8
:10078C000010EF001017377700401C4393E7270049
:10079C001CC3B7F700E003A707D11367470023A8D2
:1007AC00E7D003A707D1118B55CF9307800873B0FF
:1007BC0007300F100000B707014083A4474003A780
:1007CC00074083A64740558F23A2E74037F400E04B
:1007DC00032704D1832704D14D451377070293E7F0
:1007EC0087022328F4D0832704D193F7F7FDD98F00
:1007FC002328F4D0832704D193E787002328F4D04F
:10080C0097F0FF1FE780407F832704D14D4593E786
:10081C0087002328F4D097F0FF1FE780E07D832723
:10082C0004D1918BB1CFB707014023A29740930716
:10083C00800873A007303D26B707002023A20702CB
:10084C00B707002037F700E023800702832707D182
:10085C00854537050040ED9B2328F7D0EF00901914
:10086C006FF0BF8403A707D11367070123A8E7D054
:10087C009307800873B007300F1000008144B9B79C
:10088C00832704D1BD9B2328F4D055B7EFF25F81A9
:10089C006111EFF03F97452E293B2D3691335D3199
:1008AC009307800873A00730EF00E077B7070020AC
:1008BC00938607029C22138781803AC0639207209B
:1008CC003704002093848181130444021C40984017
:1008DC001D8F89679387077163F0E7023725014005
:1008EC00854513050540F1219C40370700209306F0
:1008FC0007021CC085479CA2824709479C2313848E
:10090C000182631AF7221C409384818199EB9C40ED
:10091C0001451CC0EFF09F919840238A018023A8C9
:10092C00E1801C4088401D8D9307F01D63E0A720DB
:10093C009305000AEFF0CFFC1336C503914537152C
:10094C0001404525938741829C43938441811384C4
:10095C0041828DCB9387818198431440158F6343DB
:10096C0007020145EFF09F8C014689453715014080
:10097C002380040023200400AD25938781819843B4
:10098C0023A8E18018409387C18029EF8820054770
:10099C00637AA70498231377F70F29E713878181CC
:1009AC001443138701811843998E37771B00130763
:1009BC00F7736379D7028D4609476303D500054762
:1009CC009316170098A005671307472936970A2333
:1009DC00EFF0DF859385818198411386018118C2E0
:1009EC009387C18098231377F70F09CF83A6818152
:1009FC0003A7C181998E1D67130707536374D70032
:100A0C002380070098201DE318400DE39C2393F7E7
:100A1C00F70F89EF824709479C236309F70083D7B7
:100A2C00A180C207C1876343F000153BB7F700E014
:100A3C0003A707D1118B630307109307800873B0CA
:100A4C0007300F100000B707014083A4474003A7ED
:100A5C00074083A64740558F23A2E74037F400E0B8
:100A6C00032704D1832704D14D451377070293E75D
:100A7C0087022328F4D0832704D193F7F7FDD98F6D
:100A8C002328F4D0832704D193E787002328F4D0BC
:100A9C0097F0FF1FE7804056832704D14D4593E71D
:100AAC0087002328F4D097F0FF1FE780E0548327BA
:100ABC0004D1918BD5C3B707014023A29740CDB386
:100ACC000547E39BE7E213878181B704002083A6E7
:100ADC00440218433EC21384818193844402E38D03
:100AEC00E6E0E13E8247814588A3372501401305A6
:100AFC000540C1248247982392476390E70293876D
:100B0C00418194230947637AD7001305C01298A337
:100B1C00EFF0CFF1184023A8E1801C409CC0B70730
:100B2C0000209387070223800700F9B3ED292320C7
:100B3C000400353195BB2320040029B503A707D148
:100B4C001367070123A8E7D09307800873B0073019
:100B5C000F100000814419B7832704D1BD9B2328B3
:100B6C00F4D03DBBEFF2CFD3371402401C40370713
:100B7C00FFF8414593E717001CC05C40F98F5CC03F
:100B8C001C403707F7FE7D17F98F1CC01C40370738
:100B9C00FCFF7D17F98F1CC05C4041777D17F98FE6
:100BAC005CC0B7079F001CC419231C4C93E70702B9
:100BBC001CCCB717014003A7074093860740137757
:100BCC00F7F023A0E74003A707401367070823A00B
:100BDC00E74089479CCAB7F7FF1F03C5477D9307BA
:100BEC00F00F6304F5007D89D921B72702409843A3
:100BFC00C176FD16719B98C398431367170098C371
:100C0C00B7170240D843D8C3D843758FD8C3D8433D
:100C1C00B7060001D8C39843558F98C398439316D1
:100C2C006700E3DD06FED843B7160240719BD8C3BC
:100C3C00D84313672700D8C32147DC42B18BE39E0E
:100C4C00E7FE6FF08FC6EFF2AFC5371702405C437B
:100C5C00370400209146B18B1304C4016385D7007F
:100C6C00A1466382D704B7376E01938707601CC017
:100C7C00B7160240DC420840918313F7F700B70720
:100C8C0000209387C700BA978C23DC4293F5F50FAD
:100C9C0093F707083357B50081E7EFF0AFC32A8706
:100CAC0018C06FF08FC05C43B777DC02938707C026
:100CBC007DBF01A097010020938101B6138101FE35
:100CCC001305000A97F5FF1F9385053317F6FF1FD1
:100CDC001306463363FAC5008322050023A0550092
:100CEC0011059105E3EAC5FE170500001305855AA9
:100CFC0097F5FF1F9385053117F6FF1F1306C631B5
:100D0C0063FAC5008322050023A055001105910547
:100D1C00E3EAC5FE17F5FF1F130505309385C18265
:100D2C006377B500232005001105E36DB5FEB722EE
:100D3C00000093820288739002308D42739042803F
:100D4C0097F2FFFF9382422B93E232007390523062
:100D5C00EFF05FE197020000938282B3739012343C
:100D6C00730020305C413707F1FF1307F7EF7D8FDD
:100D7C00DC419441A207D58FD98F5CC11C4537F754
:100D8C00F1FF1307D77FD4457D8F9C49D58F9445B0
:100D9C008606D58FD98F1CC55C55370710FF7D177C
:100DAC007D8FDC29FD1793F7F70FD207D98F5CD510
:100DBC0082801C4589C593E717001CC58280F99B6E
:100DCC00EDBF1C4593E787001CC5828008450D814B
:100DDC00058982801C4593E747001CC58280084525
:100DEC000981058982801C4591C537075000D98F30
:100DFC001CC582803707B0FF7D17F98FD5BFA5477B
:100E0C0063F8B704138765FF931717008322C50097
:100E1C00BA971D433313F3001343F3FF337353009B
:100E2C00B397F600B3E767005CC5994763E3C70463
:100E3C007D16931726003E965859FD47B397C70069
:100E4C0093C7F7FFF98FB395C500DD8D4CD9828020
:100E5C009397150003230501AE971D473317F70031
:100E6C001347F7FF33776700B397F6005D8F18C908
:100E7C006DBFB14763E2C7026516931726003E9615
:100E8C001859FD47B397C70093C7F7FFF98FB39570
:100E9C00C500DD8D0CD982804D16131726005455D4
:100EAC003A96FD47B397C70093C7F7FFF58FB395F5
:100EBC00C500DD8D4CD5828068454205418182801C
:100ECC0008416D8D3335A000828058410323050005
:100EDC004C4537060140930706403E979346F3FF77
:100EEC00B1C583250640F58D2320B640D043F18E45
:100EFC00D4C31443B3E6660014C318419047934619
:100F0C00F7FF758E90C7D047F18ED4C71445414674
:100F1C006399C6009447D98E94C7D447558FD8C7C8
:100F2C008280B6979443558F98C382801C43F58F6B
:100F3C001CC38280B70701401387074083A7074073
:100F4C00584B698F09C77D8D3335A00082800145D0
:100F5C008280B707014023AAA7408280944593F76B
:100F6C00060193F2F60081C7DC41B3E2F20083D3B1
:100F7C00050093F7F30FA5C303230500611122C2EB
:100F8C0026C081471304800293048004054733165E
:100F9C00F70033F7C3006312E602939527003D4731
:100FAC003317B7001347F7FF33736700B395B200DD
:100FBC0033E36500639D860050C985072147E3979D
:100FCC00E7FC124423206500824421018280E396D1
:100FDC0096FE10C9DDB7828008456D8D3335A000B3
:100FEC00828019C20CC982804CC9828037070140AB
:100FFC00144786058D47B397B70093C7F7FFF58F56
:10100C001CC71C47B315B500DD8D0CC78280B737E4
:10101C00004088C38280B7370040C8C38280B7378E
:10102C00004088C78280AD67373700409387A7AAF6
:10103C001CC38280B567373700409387C7CC1CC36D
:10104C00371702405C53898BF5DF828083A681823F
:10105C00854718216390F6021C31639CD7023C2112
:10106C009A0793E707F8B7E600E093F7F70FBA96FD
:10107C002380F6408546935757003397E60054413A
:10108C0089CE938707048A07B7E600E0B69798C322
:10109C008280EDF33C219A07F9B793870706B7E6F0
:1010AC0000E08A07B69798C30F10000082803717AC
:1010BC0002401C430E0593F777F05D8D08C38280C8
:1010CC00B7160240DC4241771307F77FF98F5D8D2D
:1010DC00C8C2828099C5371702401C4F5D8D08CF5E
:1010EC008280B7170240984F1345F5FF798D88CF52
:1010FC00828099C5371702405C4F5D8D48CF828046
:10110C00B7170240D84F1345F5FF798DC8CF8280B1
:10111C001E2137370140130707C0C207C18363067E
:10112C00E500370700406316E500BA2193F7F7F89E
:10113C00D98FFA2193F7F7CFC207C183D98F1EA19C
:10114C00DE215EB59E211EB5B7370140938707C0DF
:10115C006314F5009C251EB985475EA982801E315B
:10116C0065771307F7CFC207C183BD9BC207C18345
:10117C001EB11E31562103D38500C20713960601FA
:10118C00162DC18393F7F7FD758F96214182A20628
:10119C00558FB62142074183B3E666009206D58F80
:1011AC00B7360140C207938606C0C183631ED502C1
:1011BC00B62593F7F7F703D3C5009206D58FD62142
:1011CC00C207C183920693F7F7FBD58FFD76938602
:1011DC00F63FF18EF225C207C183336666000A061C
:1011EC00D18E13960601418252A11AADFA2118DD57
:1011FC001EB182801E2189C593E717001EA1828033
:10120C00C207C183F99BC207C183CDBF8357450475
:10121C0091C52167D98F2312F5048280C607C58337
:10122C00DDBF5E2501C6DD8D4EA5828093C5F5FF21
:10123C00FD8DDDBF1E2189C593E707081EA18280A5
:10124C00C207C18393F7F7F7C207C183C5BF1A2D35
:10125C00FD779387F77FF98FA205CD8FC207C183E6
:10126C001EAD82801E294A25ED8F4205418189C71A
:10127C006D8D3335A00082800145828093C5F5FFCA
:10128C00C205C1810EA98280000032002C018403AA
:10129C0001020304050607080102030405060708FA
:0412AC00006CDC02F4
:00000001FF
